{
  "abi": [
    {
      "inputs": [
        {
          "internalType": "address",
          "name": "newTco2",
          "type": "address"
        },
        {
          "internalType": "address",
          "name": "newBeneficiary",
          "type": "address"
        },
        {
          "internalType": "string",
          "name": "newBeneficiaryName",
          "type": "string"
        },
        {
          "internalType": "string",
          "name": "newSolanaAccountAddress",
          "type": "string"
        }
      ],
      "stateMutability": "nonpayable",
      "type": "constructor"
    },
    {
      "inputs": [],
      "name": "InsufficientFunds",
      "type": "error"
    },
    {
      "inputs": [],
      "name": "InvalidRetireContract",
      "type": "error"
    },
    {
      "anonymous": false,
      "inputs": [
        {
          "indexed": true,
          "internalType": "address",
          "name": "tco2",
          "type": "address"
        },
        {
          "indexed": true,
          "internalType": "address",
          "name": "beneficiary",
          "type": "address"
        },
        {
          "indexed": false,
          "internalType": "string",
          "name": "beneficiaryName",
          "type": "string"
        },
        {
          "indexed": false,
          "internalType": "uint256",
          "name": "amount",
          "type": "uint256"
        }
      ],
      "name": "Offset",
      "type": "event"
    },
    {
      "anonymous": false,
      "inputs": [
        {
          "indexed": true,
          "internalType": "address",
          "name": "previousOwner",
          "type": "address"
        },
        {
          "indexed": true,
          "internalType": "address",
          "name": "newOwner",
          "type": "address"
        }
      ],
      "name": "OwnershipTransferred",
      "type": "event"
    },
    {
      "inputs": [],
      "name": "SolanaAccountAddress",
      "outputs": [
        {
          "internalType": "string",
          "name": "",
          "type": "string"
        }
      ],
      "stateMutability": "view",
      "type": "function"
    },
    {
      "inputs": [],
      "name": "beneficiary",
      "outputs": [
        {
          "internalType": "address",
          "name": "",
          "type": "address"
        }
      ],
      "stateMutability": "view",
      "type": "function"
    },
    {
      "inputs": [],
      "name": "beneficiaryName",
      "outputs": [
        {
          "internalType": "string",
          "name": "",
          "type": "string"
        }
      ],
      "stateMutability": "view",
      "type": "function"
    },
    {
      "inputs": [
        {
          "internalType": "uint256",
          "name": "tokenId",
          "type": "uint256"
        },
        {
          "internalType": "bytes32",
          "name": "recipient",
          "type": "bytes32"
        }
      ],
      "name": "bridgeNFT",
      "outputs": [
        {
          "internalType": "uint256",
          "name": "sequence",
          "type": "uint256"
        }
      ],
      "stateMutability": "nonpayable",
      "type": "function"
    },
    {
      "inputs": [],
      "name": "certificate",
      "outputs": [
        {
          "internalType": "address",
          "name": "",
          "type": "address"
        }
      ],
      "stateMutability": "view",
      "type": "function"
    },
    {
      "inputs": [
        {
          "internalType": "string",
          "name": "entity",
          "type": "string"
        },
        {
          "internalType": "string",
          "name": "message",
          "type": "string"
        }
      ],
      "name": "offset",
      "outputs": [],
      "stateMutability": "nonpayable",
      "type": "function"
    },
    {
      "inputs": [],
      "name": "owner",
      "outputs": [
        {
          "internalType": "address",
          "name": "",
          "type": "address"
        }
      ],
      "stateMutability": "view",
      "type": "function"
    },
    {
      "inputs": [],
      "name": "renounceOwnership",
      "outputs": [],
      "stateMutability": "nonpayable",
      "type": "function"
    },
    {
      "inputs": [],
      "name": "retireContract",
      "outputs": [
        {
          "internalType": "address",
          "name": "",
          "type": "address"
        }
      ],
      "stateMutability": "view",
      "type": "function"
    },
    {
      "inputs": [
        {
          "internalType": "address",
          "name": "newBeneficiary",
          "type": "address"
        },
        {
          "internalType": "string",
          "name": "newBeneficiaryName",
          "type": "string"
        }
      ],
      "name": "setBeneficiary",
      "outputs": [],
      "stateMutability": "nonpayable",
      "type": "function"
    },
    {
      "inputs": [
        {
          "internalType": "address",
          "name": "newRetireContract",
          "type": "address"
        }
      ],
      "name": "setRetireContract",
      "outputs": [],
      "stateMutability": "nonpayable",
      "type": "function"
    },
    {
      "inputs": [
        {
          "internalType": "string",
          "name": "newSolanaAccountAddress",
          "type": "string"
        }
      ],
      "name": "setSolanaAccountAddress",
      "outputs": [],
      "stateMutability": "nonpayable",
      "type": "function"
    },
    {
      "inputs": [
        {
          "internalType": "address",
          "name": "newTco2",
          "type": "address"
        }
      ],
      "name": "setTCO2",
      "outputs": [],
      "stateMutability": "nonpayable",
      "type": "function"
    },
    {
      "inputs": [
        {
          "internalType": "string",
          "name": "str",
          "type": "string"
        }
      ],
      "name": "stringToBytes32",
      "outputs": [
        {
          "internalType": "bytes32",
          "name": "result",
          "type": "bytes32"
        }
      ],
      "stateMutability": "pure",
      "type": "function"
    },
    {
      "inputs": [],
      "name": "tco2",
      "outputs": [
        {
          "internalType": "address",
          "name": "",
          "type": "address"
        }
      ],
      "stateMutability": "view",
      "type": "function"
    },
    {
      "inputs": [
        {
          "internalType": "address",
          "name": "newOwner",
          "type": "address"
        }
      ],
      "name": "transferOwnership",
      "outputs": [],
      "stateMutability": "nonpayable",
      "type": "function"
    }
  ],
  "bytecode": {
    "object": "0x6080604052600780546001600160a01b03199081167351a02d0dcb5e52f5b92bdaa38fa013c91c7309a917909155600880548216735e377f16e4ec6001652befd737341a28889af00217905560098054909116732791bca1f2de4661ed88a30c99a7a9449aa841741790553480156200007757600080fd5b50604051620011be380380620011be8339810160408190526200009a91620002eb565b620000a5336200010b565b600380546001600160a01b038087166001600160a01b03199283161790925560048054928616929091169190911790558151620000ea9060059060208501906200015b565b508051620001009060069060208401906200015b565b5050505050620003b7565b600080546001600160a01b038381166001600160a01b0319831681178455604051919092169283917f8be0079c531659141344cd1fd0a4f28419497f9722a3daafe3b4186f6b6457e09190a35050565b82805462000169906200037b565b90600052602060002090601f0160209004810192826200018d5760008555620001d8565b82601f10620001a857805160ff1916838001178555620001d8565b82800160010185558215620001d8579182015b82811115620001d8578251825591602001919060010190620001bb565b50620001e6929150620001ea565b5090565b5b80821115620001e65760008155600101620001eb565b80516001600160a01b03811681146200021957600080fd5b919050565b634e487b7160e01b600052604160045260246000fd5b600082601f8301126200024657600080fd5b81516001600160401b03808211156200026357620002636200021e565b604051601f8301601f19908116603f011681019082821181831017156200028e576200028e6200021e565b81604052838152602092508683858801011115620002ab57600080fd5b600091505b83821015620002cf5785820183015181830184015290820190620002b0565b83821115620002e15760008385830101525b9695505050505050565b600080600080608085870312156200030257600080fd5b6200030d8562000201565b93506200031d6020860162000201565b60408601519093506001600160401b03808211156200033b57600080fd5b620003498883890162000234565b935060608701519150808211156200036057600080fd5b506200036f8782880162000234565b91505092959194509250565b600181811c908216806200039057607f821691505b602082108103620003b157634e487b7160e01b600052602260045260246000fd5b50919050565b610df780620003c76000396000f3fe608060405234801561001057600080fd5b50600436106101005760003560e01c80638da5cb5b11610097578063d919836e11610066578063d919836e1461020d578063eaacedc614610220578063f2fde38b14610233578063f5cca9d41461024657600080fd5b80638da5cb5b146101b3578063ae57157a146101c4578063c7d0040e146101d7578063cfb51928146101ea57600080fd5b806350a22dbb116100d357806350a22dbb1461017257806362227c31146101855780636b7285d314610198578063715018a6146101ab57600080fd5b8063259f390e146101055780632dbf7b981461011a57806338af3eed1461014a578063450f12721461015d575b600080fd5b610118610113366004610926565b61024e565b005b60085461012d906001600160a01b031681565b6040516001600160a01b0390911681526020015b60405180910390f35b60045461012d906001600160a01b031681565b61016561029f565b6040516101419190610948565b60035461012d906001600160a01b031681565b610118610193366004610926565b61032d565b60025461012d906001600160a01b031681565b610118610357565b6000546001600160a01b031661012d565b6101186101d23660046109e6565b61036b565b6101186101e5366004610a39565b6103a0565b6101ff6101f8366004610abb565b6020015190565b604051908152602001610141565b6101ff61021b366004610b6c565b6105e8565b61011861022e366004610b8e565b610723565b610118610241366004610926565b61073c565b6101656107ba565b6102566107c7565b6001600160a01b03811661027d5760405163dfa4670360e01b815260040160405180910390fd5b600280546001600160a01b0319166001600160a01b0392909216919091179055565b600580546102ac90610bd0565b80601f01602080910402602001604051908101604052809291908181526020018280546102d890610bd0565b80156103255780601f106102fa57610100808354040283529160200191610325565b820191906000526020600020905b81548152906001019060200180831161030857829003601f168201915b505050505081565b6103356107c7565b600380546001600160a01b0319166001600160a01b0392909216919091179055565b61035f6107c7565b6103696000610821565b565b6103736107c7565b600480546001600160a01b0319166001600160a01b03851617905561039a60058383610871565b50505050565b6009546040516370a0823160e01b81523060048201526001600160a01b03909116906370a0823190602401602060405180830381865afa1580156103e8573d6000803e3d6000fd5b505050506040513d601f19601f8201168201806040525081019061040c9190610c0a565b60000361042c5760405163356680b760e01b815260040160405180910390fd5b6009546040516370a0823160e01b81523060048201526001600160a01b039091169060009082906370a0823190602401602060405180830381865afa158015610479573d6000803e3d6000fd5b505050506040513d601f19601f8201168201806040525081019061049d9190610c0a565b60025460405163a9059cbb60e01b81526001600160a01b0391821660048201526024810183905291925083169063a9059cbb906044016020604051808303816000875af11580156104f2573d6000803e3d6000fd5b505050506040513d601f19601f820116820180604052508101906105169190610c23565b5060025460035460048054604051631eb4f8f160e31b81526001600160a01b039485169463f5a7c7889461055e949082169388938e938e939216916005918e918e9101610d0d565b600060405180830381600087803b15801561057857600080fd5b505af115801561058c573d6000803e3d6000fd5b50506004546003546040516001600160a01b039283169450911691507f62c1393105c500a6e24dec1ad208220047772f49b7132b3f0f017f3281bf49a0906105d8906005908690610d75565b60405180910390a3505050505050565b600073c15133d0fc527ad38eab2627ee89fd8faf7288598161060960015490565b9050610619600180546001019055565b60075460405163095ea7b360e01b81526001600160a01b039182166004820152602481018790529083169063095ea7b390604401600060405180830381600087803b15801561066757600080fd5b505af115801561067b573d6000803e3d6000fd5b505060075460405163c96616e160e01b81526001600160a01b038681166004830152602482018a9052600160448301526064820189905263ffffffff86166084830152909116925063c96616e1915060a4016020604051808303816000875af11580156106ec573d6000803e3d6000fd5b505050506040513d601f19601f820116820180604052508101906107109190610d97565b67ffffffffffffffff1695945050505050565b61072b6107c7565b61073760068383610871565b505050565b6107446107c7565b6001600160a01b0381166107ae5760405162461bcd60e51b815260206004820152602660248201527f4f776e61626c653a206e6577206f776e657220697320746865207a65726f206160448201526564647265737360d01b60648201526084015b60405180910390fd5b6107b781610821565b50565b600680546102ac90610bd0565b6000546001600160a01b031633146103695760405162461bcd60e51b815260206004820181905260248201527f4f776e61626c653a2063616c6c6572206973206e6f7420746865206f776e657260448201526064016107a5565b600080546001600160a01b038381166001600160a01b0319831681178455604051919092169283917f8be0079c531659141344cd1fd0a4f28419497f9722a3daafe3b4186f6b6457e09190a35050565b82805461087d90610bd0565b90600052602060002090601f01602090048101928261089f57600085556108e5565b82601f106108b85782800160ff198235161785556108e5565b828001600101855582156108e5579182015b828111156108e55782358255916020019190600101906108ca565b506108f19291506108f5565b5090565b5b808211156108f157600081556001016108f6565b80356001600160a01b038116811461092157600080fd5b919050565b60006020828403121561093857600080fd5b6109418261090a565b9392505050565b600060208083528351808285015260005b8181101561097557858101830151858201604001528201610959565b81811115610987576000604083870101525b50601f01601f1916929092016040019392505050565b60008083601f8401126109af57600080fd5b50813567ffffffffffffffff8111156109c757600080fd5b6020830191508360208285010111156109df57600080fd5b9250929050565b6000806000604084860312156109fb57600080fd5b610a048461090a565b9250602084013567ffffffffffffffff811115610a2057600080fd5b610a2c8682870161099d565b9497909650939450505050565b60008060008060408587031215610a4f57600080fd5b843567ffffffffffffffff80821115610a6757600080fd5b610a738883890161099d565b90965094506020870135915080821115610a8c57600080fd5b50610a998782880161099d565b95989497509550505050565b634e487b7160e01b600052604160045260246000fd5b600060208284031215610acd57600080fd5b813567ffffffffffffffff80821115610ae557600080fd5b818401915084601f830112610af957600080fd5b813581811115610b0b57610b0b610aa5565b604051601f8201601f19908116603f01168101908382118183101715610b3357610b33610aa5565b81604052828152876020848701011115610b4c57600080fd5b826020860160208301376000928101602001929092525095945050505050565b60008060408385031215610b7f57600080fd5b50508035926020909101359150565b60008060208385031215610ba157600080fd5b823567ffffffffffffffff811115610bb857600080fd5b610bc48582860161099d565b90969095509350505050565b600181811c90821680610be457607f821691505b602082108103610c0457634e487b7160e01b600052602260045260246000fd5b50919050565b600060208284031215610c1c57600080fd5b5051919050565b600060208284031215610c3557600080fd5b8151801515811461094157600080fd5b81835281816020850137506000828201602090810191909152601f909101601f19169091010190565b8054600090600181811c9080831680610c8857607f831692505b60208084108203610ca957634e487b7160e01b600052602260045260246000fd5b83885260208801828015610cc45760018114610cd557610d00565b60ff19871682528282019750610d00565b60008981526020902060005b87811015610cfa57815484820152908601908401610ce1565b83019850505b5050505050505092915050565b600060018060a01b03808b16835289602084015260c06040840152610d3660c08401898b610c45565b81881660608501528381036080850152610d508188610c6e565b91505082810360a0840152610d66818587610c45565b9b9a5050505050505050505050565b604081526000610d886040830185610c6e565b90508260208301529392505050565b600060208284031215610da957600080fd5b815167ffffffffffffffff8116811461094157600080fdfea26469706673582212205a2e6781d1f83342db875ecbee592c09ae220479c58e57e9cb6d2971ea500b6464736f6c634300080e0033",
    "linkReferences": {}
  },
  "methodIdentifiers": {
    "SolanaAccountAddress()": "f5cca9d4",
    "beneficiary()": "38af3eed",
    "beneficiaryName()": "450f1272",
    "bridgeNFT(uint256,bytes32)": "d919836e",
    "certificate()": "2dbf7b98",
    "offset(string,string)": "c7d0040e",
    "owner()": "8da5cb5b",
    "renounceOwnership()": "715018a6",
    "retireContract()": "6b7285d3",
    "setBeneficiary(address,string)": "ae57157a",
    "setRetireContract(address)": "259f390e",
    "setSolanaAccountAddress(string)": "eaacedc6",
    "setTCO2(address)": "62227c31",
    "stringToBytes32(string)": "cfb51928",
    "tco2()": "50a22dbb",
    "transferOwnership(address)": "f2fde38b"
  },
  "id": 56
}