{
  "abi": [
    {
      "inputs": [
        {
          "internalType": "address",
          "name": "newTco2",
          "type": "address"
        },
        {
          "internalType": "address",
          "name": "newBeneficiary",
          "type": "address"
        },
        {
          "internalType": "string",
          "name": "newBeneficiaryName",
          "type": "string"
        }
      ],
      "stateMutability": "nonpayable",
      "type": "constructor"
    },
    {
      "inputs": [],
      "name": "InsufficientFunds",
      "type": "error"
    },
    {
      "inputs": [],
      "name": "InvalidRetireContract",
      "type": "error"
    },
    {
      "anonymous": false,
      "inputs": [
        {
          "indexed": true,
          "internalType": "address",
          "name": "tco2",
          "type": "address"
        },
        {
          "indexed": true,
          "internalType": "address",
          "name": "beneficiary",
          "type": "address"
        },
        {
          "indexed": false,
          "internalType": "string",
          "name": "beneficiaryName",
          "type": "string"
        },
        {
          "indexed": false,
          "internalType": "uint256",
          "name": "amount",
          "type": "uint256"
        }
      ],
      "name": "Offset",
      "type": "event"
    },
    {
      "anonymous": false,
      "inputs": [
        {
          "indexed": true,
          "internalType": "address",
          "name": "previousOwner",
          "type": "address"
        },
        {
          "indexed": true,
          "internalType": "address",
          "name": "newOwner",
          "type": "address"
        }
      ],
      "name": "OwnershipTransferred",
      "type": "event"
    },
    {
      "inputs": [],
      "name": "BRIDGE",
      "outputs": [
        {
          "internalType": "address",
          "name": "",
          "type": "address"
        }
      ],
      "stateMutability": "view",
      "type": "function"
    },
    {
      "inputs": [],
      "name": "CERT",
      "outputs": [
        {
          "internalType": "address",
          "name": "",
          "type": "address"
        }
      ],
      "stateMutability": "view",
      "type": "function"
    },
    {
      "inputs": [],
      "name": "SolanaAccountAddress",
      "outputs": [
        {
          "internalType": "string",
          "name": "",
          "type": "string"
        }
      ],
      "stateMutability": "view",
      "type": "function"
    },
    {
      "inputs": [],
      "name": "USDC",
      "outputs": [
        {
          "internalType": "address",
          "name": "",
          "type": "address"
        }
      ],
      "stateMutability": "view",
      "type": "function"
    },
    {
      "inputs": [],
      "name": "beneficiary",
      "outputs": [
        {
          "internalType": "address",
          "name": "",
          "type": "address"
        }
      ],
      "stateMutability": "view",
      "type": "function"
    },
    {
      "inputs": [],
      "name": "beneficiaryName",
      "outputs": [
        {
          "internalType": "string",
          "name": "",
          "type": "string"
        }
      ],
      "stateMutability": "view",
      "type": "function"
    },
    {
      "inputs": [
        {
          "internalType": "uint256",
          "name": "tokenId",
          "type": "uint256"
        },
        {
          "internalType": "bytes32",
          "name": "recipient",
          "type": "bytes32"
        }
      ],
      "name": "bridgeNFT",
      "outputs": [
        {
          "internalType": "uint256",
          "name": "sequence",
          "type": "uint256"
        }
      ],
      "stateMutability": "nonpayable",
      "type": "function"
    },
    {
      "inputs": [
        {
          "internalType": "string",
          "name": "entity",
          "type": "string"
        },
        {
          "internalType": "string",
          "name": "message",
          "type": "string"
        }
      ],
      "name": "offset",
      "outputs": [],
      "stateMutability": "nonpayable",
      "type": "function"
    },
    {
      "inputs": [
        {
          "internalType": "address",
          "name": "operator",
          "type": "address"
        },
        {
          "internalType": "address",
          "name": "from",
          "type": "address"
        },
        {
          "internalType": "uint256",
          "name": "tokenId",
          "type": "uint256"
        },
        {
          "internalType": "bytes",
          "name": "data",
          "type": "bytes"
        }
      ],
      "name": "onERC721Received",
      "outputs": [
        {
          "internalType": "bytes4",
          "name": "",
          "type": "bytes4"
        }
      ],
      "stateMutability": "nonpayable",
      "type": "function"
    },
    {
      "inputs": [],
      "name": "owner",
      "outputs": [
        {
          "internalType": "address",
          "name": "",
          "type": "address"
        }
      ],
      "stateMutability": "view",
      "type": "function"
    },
    {
      "inputs": [],
      "name": "renounceOwnership",
      "outputs": [],
      "stateMutability": "nonpayable",
      "type": "function"
    },
    {
      "inputs": [],
      "name": "retireContract",
      "outputs": [
        {
          "internalType": "address",
          "name": "",
          "type": "address"
        }
      ],
      "stateMutability": "view",
      "type": "function"
    },
    {
      "inputs": [
        {
          "internalType": "address",
          "name": "newBeneficiary",
          "type": "address"
        },
        {
          "internalType": "string",
          "name": "newBeneficiaryName",
          "type": "string"
        }
      ],
      "name": "setBeneficiary",
      "outputs": [],
      "stateMutability": "nonpayable",
      "type": "function"
    },
    {
      "inputs": [
        {
          "internalType": "address",
          "name": "newRetireContract",
          "type": "address"
        }
      ],
      "name": "setRetireContract",
      "outputs": [],
      "stateMutability": "nonpayable",
      "type": "function"
    },
    {
      "inputs": [
        {
          "internalType": "string",
          "name": "newSolanaAccountAddress",
          "type": "string"
        }
      ],
      "name": "setSolanaAccountAddress",
      "outputs": [],
      "stateMutability": "nonpayable",
      "type": "function"
    },
    {
      "inputs": [
        {
          "internalType": "address",
          "name": "newTco2",
          "type": "address"
        }
      ],
      "name": "setTCO2",
      "outputs": [],
      "stateMutability": "nonpayable",
      "type": "function"
    },
    {
      "inputs": [],
      "name": "tco2",
      "outputs": [
        {
          "internalType": "address",
          "name": "",
          "type": "address"
        }
      ],
      "stateMutability": "view",
      "type": "function"
    },
    {
      "inputs": [
        {
          "internalType": "address",
          "name": "newOwner",
          "type": "address"
        }
      ],
      "name": "transferOwnership",
      "outputs": [],
      "stateMutability": "nonpayable",
      "type": "function"
    }
  ],
  "bytecode": {
    "object": "0x60806040523480156200001157600080fd5b50604051620010cb380380620010cb8339810160408190526200003491620001b7565b6200003f336200008e565b600380546001600160a01b038086166001600160a01b0319928316179092556004805492851692909116919091179055805162000084906005906020840190620000de565b50505050620002f7565b600080546001600160a01b038381166001600160a01b0319831681178455604051919092169283917f8be0079c531659141344cd1fd0a4f28419497f9722a3daafe3b4186f6b6457e09190a35050565b828054620000ec90620002bb565b90600052602060002090601f0160209004810192826200011057600085556200015b565b82601f106200012b57805160ff19168380011785556200015b565b828001600101855582156200015b579182015b828111156200015b5782518255916020019190600101906200013e565b50620001699291506200016d565b5090565b5b808211156200016957600081556001016200016e565b80516001600160a01b03811681146200019c57600080fd5b919050565b634e487b7160e01b600052604160045260246000fd5b600080600060608486031215620001cd57600080fd5b620001d88462000184565b92506020620001e981860162000184565b60408601519093506001600160401b03808211156200020757600080fd5b818701915087601f8301126200021c57600080fd5b815181811115620002315762000231620001a1565b604051601f8201601f19908116603f011681019083821181831017156200025c576200025c620001a1565b816040528281528a868487010111156200027557600080fd5b600093505b828410156200029957848401860151818501870152928501926200027a565b82841115620002ab5760008684830101525b8096505050505050509250925092565b600181811c90821680620002d057607f821691505b602082108103620002f157634e487b7160e01b600052602260045260246000fd5b50919050565b610dc480620003076000396000f3fe608060405234801561001057600080fd5b50600436106101165760003560e01c80638da5cb5b116100a2578063d919836e11610071578063d919836e1461025b578063eaacedc61461027c578063ee9a31a21461028f578063f2fde38b146102aa578063f5cca9d4146102bd57600080fd5b80638da5cb5b14610209578063ae57157a1461021a578063b0e7af761461022d578063c7d0040e1461024857600080fd5b806350a22dbb116100e957806350a22dbb146101ad57806362227c31146101c05780636b7285d3146101d3578063715018a6146101e657806389a30271146101ee57600080fd5b8063150b7a021461011b578063259f390e1461015857806338af3eed1461016d578063450f127214610198575b600080fd5b61013a610129366004610994565b630a85bd0160e11b95945050505050565b6040516001600160e01b031990911681526020015b60405180910390f35b61016b610166366004610a03565b6102c5565b005b600454610180906001600160a01b031681565b6040516001600160a01b03909116815260200161014f565b6101a0610316565b60405161014f9190610a25565b600354610180906001600160a01b031681565b61016b6101ce366004610a03565b6103a4565b600254610180906001600160a01b031681565b61016b6103ce565b610180732791bca1f2de4661ed88a30c99a7a9449aa8417481565b6000546001600160a01b0316610180565b61016b610228366004610a7a565b6103e2565b610180735e377f16e4ec6001652befd737341a28889af00281565b61016b610256366004610acd565b610417565b61026e610269366004610b39565b6105fb565b60405190815260200161014f565b61016b61028a366004610b5b565b610748565b6101807390bbd86a6fe93d3bc3ed6335935447e75fab7fcf81565b61016b6102b8366004610a03565b610761565b6101a06107df565b6102cd6107ec565b6001600160a01b0381166102f45760405163dfa4670360e01b815260040160405180910390fd5b600280546001600160a01b0319166001600160a01b0392909216919091179055565b6005805461032390610b9d565b80601f016020809104026020016040519081016040528092919081815260200182805461034f90610b9d565b801561039c5780601f106103715761010080835404028352916020019161039c565b820191906000526020600020905b81548152906001019060200180831161037f57829003601f168201915b505050505081565b6103ac6107ec565b600380546001600160a01b0319166001600160a01b0392909216919091179055565b6103d66107ec565b6103e06000610846565b565b6103ea6107ec565b600480546001600160a01b0319166001600160a01b03851617905561041160058383610896565b50505050565b6040516370a0823160e01b8152306004820152732791bca1f2de4661ed88a30c99a7a9449aa841749060009082906370a0823190602401602060405180830381865afa15801561046b573d6000803e3d6000fd5b505050506040513d601f19601f8201168201806040525081019061048f9190610bd7565b9050806000036104b25760405163356680b760e01b815260040160405180910390fd5b60025460405163a9059cbb60e01b81526001600160a01b039182166004820152602481018390529083169063a9059cbb906044016020604051808303816000875af1158015610505573d6000803e3d6000fd5b505050506040513d601f19601f820116820180604052508101906105299190610bf0565b5060025460035460048054604051631eb4f8f160e31b81526001600160a01b039485169463f5a7c78894610571949082169388938e938e939216916005918e918e9101610cda565b600060405180830381600087803b15801561058b57600080fd5b505af115801561059f573d6000803e3d6000fd5b50506004546003546040516001600160a01b039283169450911691507f62c1393105c500a6e24dec1ad208220047772f49b7132b3f0f017f3281bf49a0906105eb906005908690610d42565b60405180910390a3505050505050565b60008061060760015490565b9050610617600180546001019055565b60405163095ea7b360e01b81527390bbd86a6fe93d3bc3ed6335935447e75fab7fcf600482015260248101859052735e377f16e4ec6001652befd737341a28889af0029063095ea7b390604401600060405180830381600087803b15801561067e57600080fd5b505af1158015610692573d6000803e3d6000fd5b505060405163c96616e160e01b8152735e377f16e4ec6001652befd737341a28889af002600482015260248101879052600160448201526064810186905263ffffffff841660848201527390bbd86a6fe93d3bc3ed6335935447e75fab7fcf925063c96616e1915060a4016020604051808303816000875af115801561071c573d6000803e3d6000fd5b505050506040513d601f19601f820116820180604052508101906107409190610d64565b505092915050565b6107506107ec565b61075c60068383610896565b505050565b6107696107ec565b6001600160a01b0381166107d35760405162461bcd60e51b815260206004820152602660248201527f4f776e61626c653a206e6577206f776e657220697320746865207a65726f206160448201526564647265737360d01b60648201526084015b60405180910390fd5b6107dc81610846565b50565b6006805461032390610b9d565b6000546001600160a01b031633146103e05760405162461bcd60e51b815260206004820181905260248201527f4f776e61626c653a2063616c6c6572206973206e6f7420746865206f776e657260448201526064016107ca565b600080546001600160a01b038381166001600160a01b0319831681178455604051919092169283917f8be0079c531659141344cd1fd0a4f28419497f9722a3daafe3b4186f6b6457e09190a35050565b8280546108a290610b9d565b90600052602060002090601f0160209004810192826108c4576000855561090a565b82601f106108dd5782800160ff1982351617855561090a565b8280016001018555821561090a579182015b8281111561090a5782358255916020019190600101906108ef565b5061091692915061091a565b5090565b5b80821115610916576000815560010161091b565b80356001600160a01b038116811461094657600080fd5b919050565b60008083601f84011261095d57600080fd5b50813567ffffffffffffffff81111561097557600080fd5b60208301915083602082850101111561098d57600080fd5b9250929050565b6000806000806000608086880312156109ac57600080fd5b6109b58661092f565b94506109c36020870161092f565b935060408601359250606086013567ffffffffffffffff8111156109e657600080fd5b6109f28882890161094b565b969995985093965092949392505050565b600060208284031215610a1557600080fd5b610a1e8261092f565b9392505050565b600060208083528351808285015260005b81811015610a5257858101830151858201604001528201610a36565b81811115610a64576000604083870101525b50601f01601f1916929092016040019392505050565b600080600060408486031215610a8f57600080fd5b610a988461092f565b9250602084013567ffffffffffffffff811115610ab457600080fd5b610ac08682870161094b565b9497909650939450505050565b60008060008060408587031215610ae357600080fd5b843567ffffffffffffffff80821115610afb57600080fd5b610b078883890161094b565b90965094506020870135915080821115610b2057600080fd5b50610b2d8782880161094b565b95989497509550505050565b60008060408385031215610b4c57600080fd5b50508035926020909101359150565b60008060208385031215610b6e57600080fd5b823567ffffffffffffffff811115610b8557600080fd5b610b918582860161094b565b90969095509350505050565b600181811c90821680610bb157607f821691505b602082108103610bd157634e487b7160e01b600052602260045260246000fd5b50919050565b600060208284031215610be957600080fd5b5051919050565b600060208284031215610c0257600080fd5b81518015158114610a1e57600080fd5b81835281816020850137506000828201602090810191909152601f909101601f19169091010190565b8054600090600181811c9080831680610c5557607f831692505b60208084108203610c7657634e487b7160e01b600052602260045260246000fd5b83885260208801828015610c915760018114610ca257610ccd565b60ff19871682528282019750610ccd565b60008981526020902060005b87811015610cc757815484820152908601908401610cae565b83019850505b5050505050505092915050565b600060018060a01b03808b16835289602084015260c06040840152610d0360c08401898b610c12565b81881660608501528381036080850152610d1d8188610c3b565b91505082810360a0840152610d33818587610c12565b9b9a5050505050505050505050565b604081526000610d556040830185610c3b565b90508260208301529392505050565b600060208284031215610d7657600080fd5b815167ffffffffffffffff81168114610a1e57600080fdfea2646970667358221220897ee63d007c601fbfd2280908918020c1195e780e42f5273cff74b6f88f7c1b64736f6c634300080e0033",
    "linkReferences": {}
  },
  "methodIdentifiers": {
    "BRIDGE()": "ee9a31a2",
    "CERT()": "b0e7af76",
    "SolanaAccountAddress()": "f5cca9d4",
    "USDC()": "89a30271",
    "beneficiary()": "38af3eed",
    "beneficiaryName()": "450f1272",
    "bridgeNFT(uint256,bytes32)": "d919836e",
    "offset(string,string)": "c7d0040e",
    "onERC721Received(address,address,uint256,bytes)": "150b7a02",
    "owner()": "8da5cb5b",
    "renounceOwnership()": "715018a6",
    "retireContract()": "6b7285d3",
    "setBeneficiary(address,string)": "ae57157a",
    "setRetireContract(address)": "259f390e",
    "setSolanaAccountAddress(string)": "eaacedc6",
    "setTCO2(address)": "62227c31",
    "tco2()": "50a22dbb",
    "transferOwnership(address)": "f2fde38b"
  },
  "id": 47
}