{
  "abi": [
    {
      "inputs": [],
      "name": "InsufficientFunds",
      "type": "error"
    },
    {
      "inputs": [],
      "name": "InvalidRetireContract",
      "type": "error"
    },
    {
      "anonymous": false,
      "inputs": [
        {
          "indexed": false,
          "internalType": "uint8",
          "name": "version",
          "type": "uint8"
        }
      ],
      "name": "Initialized",
      "type": "event"
    },
    {
      "anonymous": false,
      "inputs": [
        {
          "indexed": true,
          "internalType": "address",
          "name": "tco2",
          "type": "address"
        },
        {
          "indexed": true,
          "internalType": "address",
          "name": "beneficiary",
          "type": "address"
        },
        {
          "indexed": false,
          "internalType": "string",
          "name": "beneficiaryName",
          "type": "string"
        },
        {
          "indexed": false,
          "internalType": "uint256",
          "name": "amount",
          "type": "uint256"
        }
      ],
      "name": "Offset",
      "type": "event"
    },
    {
      "anonymous": false,
      "inputs": [
        {
          "indexed": true,
          "internalType": "address",
          "name": "previousOwner",
          "type": "address"
        },
        {
          "indexed": true,
          "internalType": "address",
          "name": "newOwner",
          "type": "address"
        }
      ],
      "name": "OwnershipTransferred",
      "type": "event"
    },
    {
      "inputs": [],
      "name": "BRIDGE",
      "outputs": [
        {
          "internalType": "address",
          "name": "",
          "type": "address"
        }
      ],
      "stateMutability": "view",
      "type": "function"
    },
    {
      "inputs": [],
      "name": "CERT",
      "outputs": [
        {
          "internalType": "address",
          "name": "",
          "type": "address"
        }
      ],
      "stateMutability": "view",
      "type": "function"
    },
    {
      "inputs": [],
      "name": "SolanaAccountAddress",
      "outputs": [
        {
          "internalType": "bytes32",
          "name": "",
          "type": "bytes32"
        }
      ],
      "stateMutability": "view",
      "type": "function"
    },
    {
      "inputs": [],
      "name": "USDC",
      "outputs": [
        {
          "internalType": "address",
          "name": "",
          "type": "address"
        }
      ],
      "stateMutability": "view",
      "type": "function"
    },
    {
      "inputs": [],
      "name": "beneficiary",
      "outputs": [
        {
          "internalType": "address",
          "name": "",
          "type": "address"
        }
      ],
      "stateMutability": "view",
      "type": "function"
    },
    {
      "inputs": [],
      "name": "beneficiaryName",
      "outputs": [
        {
          "internalType": "string",
          "name": "",
          "type": "string"
        }
      ],
      "stateMutability": "view",
      "type": "function"
    },
    {
      "inputs": [
        {
          "internalType": "uint256",
          "name": "tokenId",
          "type": "uint256"
        }
      ],
      "name": "bridgeNFT",
      "outputs": [
        {
          "internalType": "uint256",
          "name": "sequence",
          "type": "uint256"
        }
      ],
      "stateMutability": "nonpayable",
      "type": "function"
    },
    {
      "inputs": [
        {
          "internalType": "address",
          "name": "newTco2",
          "type": "address"
        },
        {
          "internalType": "address",
          "name": "newBeneficiary",
          "type": "address"
        },
        {
          "internalType": "string",
          "name": "newBeneficiaryName",
          "type": "string"
        },
        {
          "internalType": "bytes32",
          "name": "newSolanaAccountAddress",
          "type": "bytes32"
        },
        {
          "internalType": "address",
          "name": "newRetireContract",
          "type": "address"
        },
        {
          "internalType": "address",
          "name": "owner",
          "type": "address"
        }
      ],
      "name": "initialize",
      "outputs": [],
      "stateMutability": "nonpayable",
      "type": "function"
    },
    {
      "inputs": [
        {
          "internalType": "string",
          "name": "entity",
          "type": "string"
        },
        {
          "internalType": "string",
          "name": "message",
          "type": "string"
        }
      ],
      "name": "offset",
      "outputs": [],
      "stateMutability": "nonpayable",
      "type": "function"
    },
    {
      "inputs": [
        {
          "internalType": "address",
          "name": "operator",
          "type": "address"
        },
        {
          "internalType": "address",
          "name": "from",
          "type": "address"
        },
        {
          "internalType": "uint256",
          "name": "tokenId",
          "type": "uint256"
        },
        {
          "internalType": "bytes",
          "name": "data",
          "type": "bytes"
        }
      ],
      "name": "onERC721Received",
      "outputs": [
        {
          "internalType": "bytes4",
          "name": "",
          "type": "bytes4"
        }
      ],
      "stateMutability": "nonpayable",
      "type": "function"
    },
    {
      "inputs": [],
      "name": "owner",
      "outputs": [
        {
          "internalType": "address",
          "name": "",
          "type": "address"
        }
      ],
      "stateMutability": "view",
      "type": "function"
    },
    {
      "inputs": [],
      "name": "renounceOwnership",
      "outputs": [],
      "stateMutability": "nonpayable",
      "type": "function"
    },
    {
      "inputs": [],
      "name": "retireContract",
      "outputs": [
        {
          "internalType": "address",
          "name": "",
          "type": "address"
        }
      ],
      "stateMutability": "view",
      "type": "function"
    },
    {
      "inputs": [
        {
          "internalType": "address",
          "name": "newBeneficiary",
          "type": "address"
        },
        {
          "internalType": "string",
          "name": "newBeneficiaryName",
          "type": "string"
        }
      ],
      "name": "setBeneficiary",
      "outputs": [],
      "stateMutability": "nonpayable",
      "type": "function"
    },
    {
      "inputs": [
        {
          "internalType": "address",
          "name": "newRetireContract",
          "type": "address"
        }
      ],
      "name": "setRetireContract",
      "outputs": [],
      "stateMutability": "nonpayable",
      "type": "function"
    },
    {
      "inputs": [
        {
          "internalType": "bytes32",
          "name": "newSolanaAccountAddress",
          "type": "bytes32"
        }
      ],
      "name": "setSolanaAccountAddress",
      "outputs": [],
      "stateMutability": "nonpayable",
      "type": "function"
    },
    {
      "inputs": [
        {
          "internalType": "address",
          "name": "newTco2",
          "type": "address"
        }
      ],
      "name": "setTCO2",
      "outputs": [],
      "stateMutability": "nonpayable",
      "type": "function"
    },
    {
      "inputs": [],
      "name": "tco2",
      "outputs": [
        {
          "internalType": "address",
          "name": "",
          "type": "address"
        }
      ],
      "stateMutability": "view",
      "type": "function"
    },
    {
      "inputs": [
        {
          "internalType": "address",
          "name": "newOwner",
          "type": "address"
        }
      ],
      "name": "transferOwnership",
      "outputs": [],
      "stateMutability": "nonpayable",
      "type": "function"
    }
  ],
  "bytecode": {
    "object": "0x608060405234801561001057600080fd5b5061103f806100206000396000f3fe608060405234801561001057600080fd5b50600436106101215760003560e01c8063715018a6116100ad578063b0e7af7611610071578063b0e7af761461027f578063c7d0040e1461029a578063ee9a31a2146102ad578063f2fde38b146102c8578063f5cca9d4146102db57600080fd5b8063715018a61461022557806389a302711461022d5780638da5cb5b146102485780639fe3587914610259578063ae57157a1461026c57600080fd5b806350a22dbb116100f457806350a22dbb146101b85780635e2056a4146101cb57806362227c31146101ec578063681e9421146101ff5780636b7285d31461021257600080fd5b8063150b7a0214610126578063259f390e1461016357806338af3eed14610178578063450f1272146101a3575b600080fd5b610145610134366004610b80565b630a85bd0160e11b95945050505050565b6040516001600160e01b031990911681526020015b60405180910390f35b610176610171366004610bef565b6102e4565b005b60675461018b906001600160a01b031681565b6040516001600160a01b03909116815260200161015a565b6101ab610335565b60405161015a9190610c11565b60665461018b906001600160a01b031681565b6101de6101d9366004610c66565b6103c3565b60405190815260200161015a565b6101766101fa366004610bef565b610513565b61017661020d366004610c66565b61053d565b606a5461018b906001600160a01b031681565b61017661054a565b61018b732791bca1f2de4661ed88a30c99a7a9449aa8417481565b6033546001600160a01b031661018b565b610176610267366004610c7f565b61055e565b61017661027a366004610d0e565b6106e1565b61018b735e377f16e4ec6001652befd737341a28889af00281565b6101766102a8366004610d61565b610716565b61018b7390bbd86a6fe93d3bc3ed6335935447e75fab7fcf81565b6101766102d6366004610bef565b610903565b6101de60695481565b6102ec61097c565b6001600160a01b0381166103135760405163dfa4670360e01b815260040160405180910390fd5b606a80546001600160a01b0319166001600160a01b0392909216919091179055565b6068805461034290610dcd565b80601f016020809104026020016040519081016040528092919081815260200182805461036e90610dcd565b80156103bb5780601f10610390576101008083540402835291602001916103bb565b820191906000526020600020905b81548152906001019060200180831161039e57829003601f168201915b505050505081565b6000806103cf60655490565b90506103df606580546001019055565b60405163095ea7b360e01b81527390bbd86a6fe93d3bc3ed6335935447e75fab7fcf600482015260248101849052735e377f16e4ec6001652befd737341a28889af0029063095ea7b390604401600060405180830381600087803b15801561044657600080fd5b505af115801561045a573d6000803e3d6000fd5b505060695460405163c96616e160e01b8152735e377f16e4ec6001652befd737341a28889af00260048201526024810187905260016044820152606481019190915263ffffffff841660848201527390bbd86a6fe93d3bc3ed6335935447e75fab7fcf925063c96616e1915060a4016020604051808303816000875af11580156104e8573d6000803e3d6000fd5b505050506040513d601f19601f8201168201806040525081019061050c9190610e07565b5050919050565b61051b61097c565b606680546001600160a01b0319166001600160a01b0392909216919091179055565b61054561097c565b606955565b61055261097c565b61055c60006109d6565b565b600054610100900460ff161580801561057e5750600054600160ff909116105b806105985750303b158015610598575060005460ff166001145b6106005760405162461bcd60e51b815260206004820152602e60248201527f496e697469616c697a61626c653a20636f6e747261637420697320616c72656160448201526d191e481a5b9a5d1a585b1a5e995960921b60648201526084015b60405180910390fd5b6000805460ff191660011790558015610623576000805461ff0019166101001790555b606680546001600160a01b03808b166001600160a01b03199283161790925560678054928a169290911691909117905561065f60688787610a82565b506069849055606a80546001600160a01b0319166001600160a01b038516179055610688610a28565b61069182610903565b80156106d7576000805461ff0019169055604051600181527f7f26b83ff96e1f2b6a682f133852f6798a09c465da95921460cefb38474024989060200160405180910390a15b5050505050505050565b6106e961097c565b606780546001600160a01b0319166001600160a01b03851617905561071060688383610a82565b50505050565b61071e61097c565b6040516370a0823160e01b8152306004820152732791bca1f2de4661ed88a30c99a7a9449aa841749060009082906370a0823190602401602060405180830381865afa158015610772573d6000803e3d6000fd5b505050506040513d601f19601f820116820180604052508101906107969190610e31565b9050806000036107b95760405163356680b760e01b815260040160405180910390fd5b606a5460405163a9059cbb60e01b81526001600160a01b039182166004820152602481018390529083169063a9059cbb906044016020604051808303816000875af115801561080c573d6000803e3d6000fd5b505050506040513d601f19601f820116820180604052508101906108309190610e4a565b50606a54606654606754604051631eb4f8f160e31b81526001600160a01b039384169363f5a7c78893610879939082169287928d928d929116906068908d908d90600401610f34565b600060405180830381600087803b15801561089357600080fd5b505af11580156108a7573d6000803e3d6000fd5b50506067546066546040516001600160a01b039283169450911691507f62c1393105c500a6e24dec1ad208220047772f49b7132b3f0f017f3281bf49a0906108f3906068908690610f9c565b60405180910390a3505050505050565b61090b61097c565b6001600160a01b0381166109705760405162461bcd60e51b815260206004820152602660248201527f4f776e61626c653a206e6577206f776e657220697320746865207a65726f206160448201526564647265737360d01b60648201526084016105f7565b610979816109d6565b50565b6033546001600160a01b0316331461055c5760405162461bcd60e51b815260206004820181905260248201527f4f776e61626c653a2063616c6c6572206973206e6f7420746865206f776e657260448201526064016105f7565b603380546001600160a01b038381166001600160a01b0319831681179093556040519116919082907f8be0079c531659141344cd1fd0a4f28419497f9722a3daafe3b4186f6b6457e090600090a35050565b600054610100900460ff16610a4f5760405162461bcd60e51b81526004016105f790610fbe565b61055c600054610100900460ff16610a795760405162461bcd60e51b81526004016105f790610fbe565b61055c336109d6565b828054610a8e90610dcd565b90600052602060002090601f016020900481019282610ab05760008555610af6565b82601f10610ac95782800160ff19823516178555610af6565b82800160010185558215610af6579182015b82811115610af6578235825591602001919060010190610adb565b50610b02929150610b06565b5090565b5b80821115610b025760008155600101610b07565b80356001600160a01b0381168114610b3257600080fd5b919050565b60008083601f840112610b4957600080fd5b50813567ffffffffffffffff811115610b6157600080fd5b602083019150836020828501011115610b7957600080fd5b9250929050565b600080600080600060808688031215610b9857600080fd5b610ba186610b1b565b9450610baf60208701610b1b565b935060408601359250606086013567ffffffffffffffff811115610bd257600080fd5b610bde88828901610b37565b969995985093965092949392505050565b600060208284031215610c0157600080fd5b610c0a82610b1b565b9392505050565b600060208083528351808285015260005b81811015610c3e57858101830151858201604001528201610c22565b81811115610c50576000604083870101525b50601f01601f1916929092016040019392505050565b600060208284031215610c7857600080fd5b5035919050565b600080600080600080600060c0888a031215610c9a57600080fd5b610ca388610b1b565b9650610cb160208901610b1b565b9550604088013567ffffffffffffffff811115610ccd57600080fd5b610cd98a828b01610b37565b90965094505060608801359250610cf260808901610b1b565b9150610d0060a08901610b1b565b905092959891949750929550565b600080600060408486031215610d2357600080fd5b610d2c84610b1b565b9250602084013567ffffffffffffffff811115610d4857600080fd5b610d5486828701610b37565b9497909650939450505050565b60008060008060408587031215610d7757600080fd5b843567ffffffffffffffff80821115610d8f57600080fd5b610d9b88838901610b37565b90965094506020870135915080821115610db457600080fd5b50610dc187828801610b37565b95989497509550505050565b600181811c90821680610de157607f821691505b602082108103610e0157634e487b7160e01b600052602260045260246000fd5b50919050565b600060208284031215610e1957600080fd5b815167ffffffffffffffff81168114610c0a57600080fd5b600060208284031215610e4357600080fd5b5051919050565b600060208284031215610e5c57600080fd5b81518015158114610c0a57600080fd5b81835281816020850137506000828201602090810191909152601f909101601f19169091010190565b8054600090600181811c9080831680610eaf57607f831692505b60208084108203610ed057634e487b7160e01b600052602260045260246000fd5b83885260208801828015610eeb5760018114610efc57610f27565b60ff19871682528282019750610f27565b60008981526020902060005b87811015610f2157815484820152908601908401610f08565b83019850505b5050505050505092915050565b600060018060a01b03808b16835289602084015260c06040840152610f5d60c08401898b610e6c565b81881660608501528381036080850152610f778188610e95565b91505082810360a0840152610f8d818587610e6c565b9b9a5050505050505050505050565b604081526000610faf6040830185610e95565b90508260208301529392505050565b6020808252602b908201527f496e697469616c697a61626c653a20636f6e7472616374206973206e6f74206960408201526a6e697469616c697a696e6760a81b60608201526080019056fea2646970667358221220ad511b85d60e3bba36163bb8858247b1cf847ead64acd389dfac36ef5df35b6564736f6c634300080e0033",
    "linkReferences": {}
  },
  "methodIdentifiers": {
    "BRIDGE()": "ee9a31a2",
    "CERT()": "b0e7af76",
    "SolanaAccountAddress()": "f5cca9d4",
    "USDC()": "89a30271",
    "beneficiary()": "38af3eed",
    "beneficiaryName()": "450f1272",
    "bridgeNFT(uint256)": "5e2056a4",
    "initialize(address,address,string,bytes32,address,address)": "9fe35879",
    "offset(string,string)": "c7d0040e",
    "onERC721Received(address,address,uint256,bytes)": "150b7a02",
    "owner()": "8da5cb5b",
    "renounceOwnership()": "715018a6",
    "retireContract()": "6b7285d3",
    "setBeneficiary(address,string)": "ae57157a",
    "setRetireContract(address)": "259f390e",
    "setSolanaAccountAddress(bytes32)": "681e9421",
    "setTCO2(address)": "62227c31",
    "tco2()": "50a22dbb",
    "transferOwnership(address)": "f2fde38b"
  },
  "id": 52
}