{
  "abi": [
    {
      "inputs": [],
      "name": "InsufficientFunds",
      "type": "error"
    },
    {
      "inputs": [],
      "name": "InvalidRetireContract",
      "type": "error"
    },
    {
      "anonymous": false,
      "inputs": [
        {
          "indexed": true,
          "internalType": "address",
          "name": "tco2",
          "type": "address"
        },
        {
          "indexed": true,
          "internalType": "address",
          "name": "beneficiary",
          "type": "address"
        },
        {
          "indexed": false,
          "internalType": "string",
          "name": "beneficiaryName",
          "type": "string"
        },
        {
          "indexed": false,
          "internalType": "uint256",
          "name": "amount",
          "type": "uint256"
        }
      ],
      "name": "Offset",
      "type": "event"
    },
    {
      "anonymous": false,
      "inputs": [
        {
          "indexed": true,
          "internalType": "address",
          "name": "previousOwner",
          "type": "address"
        },
        {
          "indexed": true,
          "internalType": "address",
          "name": "newOwner",
          "type": "address"
        }
      ],
      "name": "OwnershipTransferred",
      "type": "event"
    },
    {
      "inputs": [],
      "name": "BRIDGE",
      "outputs": [
        {
          "internalType": "address",
          "name": "",
          "type": "address"
        }
      ],
      "stateMutability": "view",
      "type": "function"
    },
    {
      "inputs": [],
      "name": "CERT",
      "outputs": [
        {
          "internalType": "address",
          "name": "",
          "type": "address"
        }
      ],
      "stateMutability": "view",
      "type": "function"
    },
    {
      "inputs": [],
      "name": "SolanaAccountAddress",
      "outputs": [
        {
          "internalType": "string",
          "name": "",
          "type": "string"
        }
      ],
      "stateMutability": "view",
      "type": "function"
    },
    {
      "inputs": [],
      "name": "USDC",
      "outputs": [
        {
          "internalType": "address",
          "name": "",
          "type": "address"
        }
      ],
      "stateMutability": "view",
      "type": "function"
    },
    {
      "inputs": [],
      "name": "beneficiary",
      "outputs": [
        {
          "internalType": "address",
          "name": "",
          "type": "address"
        }
      ],
      "stateMutability": "view",
      "type": "function"
    },
    {
      "inputs": [],
      "name": "beneficiaryName",
      "outputs": [
        {
          "internalType": "string",
          "name": "",
          "type": "string"
        }
      ],
      "stateMutability": "view",
      "type": "function"
    },
    {
      "inputs": [
        {
          "internalType": "uint256",
          "name": "tokenId",
          "type": "uint256"
        },
        {
          "internalType": "bytes32",
          "name": "recipient",
          "type": "bytes32"
        }
      ],
      "name": "bridgeNFT",
      "outputs": [
        {
          "internalType": "uint256",
          "name": "sequence",
          "type": "uint256"
        }
      ],
      "stateMutability": "nonpayable",
      "type": "function"
    },
    {
      "inputs": [
        {
          "internalType": "address",
          "name": "newTco2",
          "type": "address"
        },
        {
          "internalType": "address",
          "name": "newBeneficiary",
          "type": "address"
        },
        {
          "internalType": "string",
          "name": "newBeneficiaryName",
          "type": "string"
        },
        {
          "internalType": "string",
          "name": "newSolanaAccountAddress",
          "type": "string"
        }
      ],
      "name": "initialize",
      "outputs": [],
      "stateMutability": "nonpayable",
      "type": "function"
    },
    {
      "inputs": [],
      "name": "logicContract",
      "outputs": [
        {
          "internalType": "address",
          "name": "",
          "type": "address"
        }
      ],
      "stateMutability": "view",
      "type": "function"
    },
    {
      "inputs": [
        {
          "internalType": "string",
          "name": "entity",
          "type": "string"
        },
        {
          "internalType": "string",
          "name": "message",
          "type": "string"
        }
      ],
      "name": "offset",
      "outputs": [],
      "stateMutability": "nonpayable",
      "type": "function"
    },
    {
      "inputs": [
        {
          "internalType": "address",
          "name": "operator",
          "type": "address"
        },
        {
          "internalType": "address",
          "name": "from",
          "type": "address"
        },
        {
          "internalType": "uint256",
          "name": "tokenId",
          "type": "uint256"
        },
        {
          "internalType": "bytes",
          "name": "data",
          "type": "bytes"
        }
      ],
      "name": "onERC721Received",
      "outputs": [
        {
          "internalType": "bytes4",
          "name": "",
          "type": "bytes4"
        }
      ],
      "stateMutability": "nonpayable",
      "type": "function"
    },
    {
      "inputs": [],
      "name": "owner",
      "outputs": [
        {
          "internalType": "address",
          "name": "",
          "type": "address"
        }
      ],
      "stateMutability": "view",
      "type": "function"
    },
    {
      "inputs": [],
      "name": "renounceOwnership",
      "outputs": [],
      "stateMutability": "nonpayable",
      "type": "function"
    },
    {
      "inputs": [],
      "name": "retireContract",
      "outputs": [
        {
          "internalType": "address",
          "name": "",
          "type": "address"
        }
      ],
      "stateMutability": "view",
      "type": "function"
    },
    {
      "inputs": [
        {
          "internalType": "address",
          "name": "newBeneficiary",
          "type": "address"
        },
        {
          "internalType": "string",
          "name": "newBeneficiaryName",
          "type": "string"
        }
      ],
      "name": "setBeneficiary",
      "outputs": [],
      "stateMutability": "nonpayable",
      "type": "function"
    },
    {
      "inputs": [
        {
          "internalType": "address",
          "name": "newRetireContract",
          "type": "address"
        }
      ],
      "name": "setRetireContract",
      "outputs": [],
      "stateMutability": "nonpayable",
      "type": "function"
    },
    {
      "inputs": [
        {
          "internalType": "string",
          "name": "newSolanaAccountAddress",
          "type": "string"
        }
      ],
      "name": "setSolanaAccountAddress",
      "outputs": [],
      "stateMutability": "nonpayable",
      "type": "function"
    },
    {
      "inputs": [
        {
          "internalType": "address",
          "name": "newTco2",
          "type": "address"
        }
      ],
      "name": "setTCO2",
      "outputs": [],
      "stateMutability": "nonpayable",
      "type": "function"
    },
    {
      "inputs": [],
      "name": "tco2",
      "outputs": [
        {
          "internalType": "address",
          "name": "",
          "type": "address"
        }
      ],
      "stateMutability": "view",
      "type": "function"
    },
    {
      "inputs": [
        {
          "internalType": "address",
          "name": "newOwner",
          "type": "address"
        }
      ],
      "name": "transferOwnership",
      "outputs": [],
      "stateMutability": "nonpayable",
      "type": "function"
    }
  ],
  "bytecode": {
    "object": "0x608060405234801561001057600080fd5b5061001a3361001f565b61006f565b600080546001600160a01b038381166001600160a01b0319831681178455604051919092169283917f8be0079c531659141344cd1fd0a4f28419497f9722a3daafe3b4186f6b6457e09190a35050565b610f6f8061007e6000396000f3fe608060405234801561001057600080fd5b506004361061012c5760003560e01c80638da5cb5b116100ad578063d919836e11610071578063d919836e1461029c578063eaacedc6146102bd578063ee9a31a2146102d0578063f2fde38b146102eb578063f5cca9d4146102fe57600080fd5b80638da5cb5b14610237578063ae57157a14610248578063b0e7af761461025b578063c7d0040e14610276578063cc0e97c91461028957600080fd5b806350a22dbb116100f457806350a22dbb146101d657806362227c31146101e95780636b7285d3146101fc578063715018a61461021457806389a302711461021c57600080fd5b8063150b7a02146101315780632016a0d21461016e578063259f390e1461018357806338af3eed14610196578063450f1272146101c1575b600080fd5b61015061013f366004610aae565b630a85bd0160e11b95945050505050565b6040516001600160e01b031990911681526020015b60405180910390f35b61018161017c366004610b1d565b610306565b005b610181610191366004610bae565b6103d4565b6004546101a9906001600160a01b031681565b6040516001600160a01b039091168152602001610165565b6101c961042b565b6040516101659190610bd0565b6003546101a9906001600160a01b031681565b6101816101f7366004610bae565b6104b9565b6007546101a99061010090046001600160a01b031681565b6101816104e3565b6101a9732791bca1f2de4661ed88a30c99a7a9449aa8417481565b6000546001600160a01b03166101a9565b610181610256366004610c25565b6104f7565b6101a9735e377f16e4ec6001652befd737341a28889af00281565b610181610284366004610c78565b61052c565b6001546101a9906001600160a01b031681565b6102af6102aa366004610ce4565b61071a565b604051908152602001610165565b6101816102cb366004610d06565b610867565b6101a97390bbd86a6fe93d3bc3ed6335935447e75fab7fcf81565b6101816102f9366004610bae565b610880565b6101c96108f9565b60075460ff16156103755760405162461bcd60e51b815260206004820152602e60248201527f436f6e747261637420696e7374616e63652068617320616c726561647920626560448201526d195b881a5b9a5d1a585b1a5e995960921b60648201526084015b60405180910390fd5b6007805460ff19166001179055600380546001600160a01b038089166001600160a01b03199283161790925560048054928816929091169190911790556103be600585856109b0565b506103cb600683836109b0565b50505050505050565b6103dc610906565b6001600160a01b0381166104035760405163dfa4670360e01b815260040160405180910390fd5b600780546001600160a01b0390921661010002610100600160a81b0319909216919091179055565b6005805461043890610d48565b80601f016020809104026020016040519081016040528092919081815260200182805461046490610d48565b80156104b15780601f10610486576101008083540402835291602001916104b1565b820191906000526020600020905b81548152906001019060200180831161049457829003601f168201915b505050505081565b6104c1610906565b600380546001600160a01b0319166001600160a01b0392909216919091179055565b6104eb610906565b6104f56000610960565b565b6104ff610906565b600480546001600160a01b0319166001600160a01b038516179055610526600583836109b0565b50505050565b6040516370a0823160e01b8152306004820152732791bca1f2de4661ed88a30c99a7a9449aa841749060009082906370a0823190602401602060405180830381865afa158015610580573d6000803e3d6000fd5b505050506040513d601f19601f820116820180604052508101906105a49190610d82565b9050806000036105c75760405163356680b760e01b815260040160405180910390fd5b60075460405163a9059cbb60e01b81526101009091046001600160a01b0390811660048301526024820183905283169063a9059cbb906044016020604051808303816000875af115801561061f573d6000803e3d6000fd5b505050506040513d601f19601f820116820180604052508101906106439190610d9b565b5060075460035460048054604051631eb4f8f160e31b81526001600160a01b0361010090950485169463f5a7c78894610690949082169388938e938e939216916005918e918e9101610e85565b600060405180830381600087803b1580156106aa57600080fd5b505af11580156106be573d6000803e3d6000fd5b50506004546003546040516001600160a01b039283169450911691507f62c1393105c500a6e24dec1ad208220047772f49b7132b3f0f017f3281bf49a09061070a906005908690610eed565b60405180910390a3505050505050565b60008061072660025490565b9050610736600280546001019055565b60405163095ea7b360e01b81527390bbd86a6fe93d3bc3ed6335935447e75fab7fcf600482015260248101859052735e377f16e4ec6001652befd737341a28889af0029063095ea7b390604401600060405180830381600087803b15801561079d57600080fd5b505af11580156107b1573d6000803e3d6000fd5b505060405163c96616e160e01b8152735e377f16e4ec6001652befd737341a28889af002600482015260248101879052600160448201526064810186905263ffffffff841660848201527390bbd86a6fe93d3bc3ed6335935447e75fab7fcf925063c96616e1915060a4016020604051808303816000875af115801561083b573d6000803e3d6000fd5b505050506040513d601f19601f8201168201806040525081019061085f9190610f0f565b505092915050565b61086f610906565b61087b600683836109b0565b505050565b610888610906565b6001600160a01b0381166108ed5760405162461bcd60e51b815260206004820152602660248201527f4f776e61626c653a206e6577206f776e657220697320746865207a65726f206160448201526564647265737360d01b606482015260840161036c565b6108f681610960565b50565b6006805461043890610d48565b6000546001600160a01b031633146104f55760405162461bcd60e51b815260206004820181905260248201527f4f776e61626c653a2063616c6c6572206973206e6f7420746865206f776e6572604482015260640161036c565b600080546001600160a01b038381166001600160a01b0319831681178455604051919092169283917f8be0079c531659141344cd1fd0a4f28419497f9722a3daafe3b4186f6b6457e09190a35050565b8280546109bc90610d48565b90600052602060002090601f0160209004810192826109de5760008555610a24565b82601f106109f75782800160ff19823516178555610a24565b82800160010185558215610a24579182015b82811115610a24578235825591602001919060010190610a09565b50610a30929150610a34565b5090565b5b80821115610a305760008155600101610a35565b80356001600160a01b0381168114610a6057600080fd5b919050565b60008083601f840112610a7757600080fd5b50813567ffffffffffffffff811115610a8f57600080fd5b602083019150836020828501011115610aa757600080fd5b9250929050565b600080600080600060808688031215610ac657600080fd5b610acf86610a49565b9450610add60208701610a49565b935060408601359250606086013567ffffffffffffffff811115610b0057600080fd5b610b0c88828901610a65565b969995985093965092949392505050565b60008060008060008060808789031215610b3657600080fd5b610b3f87610a49565b9550610b4d60208801610a49565b9450604087013567ffffffffffffffff80821115610b6a57600080fd5b610b768a838b01610a65565b90965094506060890135915080821115610b8f57600080fd5b50610b9c89828a01610a65565b979a9699509497509295939492505050565b600060208284031215610bc057600080fd5b610bc982610a49565b9392505050565b600060208083528351808285015260005b81811015610bfd57858101830151858201604001528201610be1565b81811115610c0f576000604083870101525b50601f01601f1916929092016040019392505050565b600080600060408486031215610c3a57600080fd5b610c4384610a49565b9250602084013567ffffffffffffffff811115610c5f57600080fd5b610c6b86828701610a65565b9497909650939450505050565b60008060008060408587031215610c8e57600080fd5b843567ffffffffffffffff80821115610ca657600080fd5b610cb288838901610a65565b90965094506020870135915080821115610ccb57600080fd5b50610cd887828801610a65565b95989497509550505050565b60008060408385031215610cf757600080fd5b50508035926020909101359150565b60008060208385031215610d1957600080fd5b823567ffffffffffffffff811115610d3057600080fd5b610d3c85828601610a65565b90969095509350505050565b600181811c90821680610d5c57607f821691505b602082108103610d7c57634e487b7160e01b600052602260045260246000fd5b50919050565b600060208284031215610d9457600080fd5b5051919050565b600060208284031215610dad57600080fd5b81518015158114610bc957600080fd5b81835281816020850137506000828201602090810191909152601f909101601f19169091010190565b8054600090600181811c9080831680610e0057607f831692505b60208084108203610e2157634e487b7160e01b600052602260045260246000fd5b83885260208801828015610e3c5760018114610e4d57610e78565b60ff19871682528282019750610e78565b60008981526020902060005b87811015610e7257815484820152908601908401610e59565b83019850505b5050505050505092915050565b600060018060a01b03808b16835289602084015260c06040840152610eae60c08401898b610dbd565b81881660608501528381036080850152610ec88188610de6565b91505082810360a0840152610ede818587610dbd565b9b9a5050505050505050505050565b604081526000610f006040830185610de6565b90508260208301529392505050565b600060208284031215610f2157600080fd5b815167ffffffffffffffff81168114610bc957600080fdfea2646970667358221220e5468b36be33a47a1ca4b1d0be0851f8864d4e8c9e5e4b94cee946fe6473c1fd64736f6c634300080e0033",
    "linkReferences": {}
  },
  "methodIdentifiers": {
    "BRIDGE()": "ee9a31a2",
    "CERT()": "b0e7af76",
    "SolanaAccountAddress()": "f5cca9d4",
    "USDC()": "89a30271",
    "beneficiary()": "38af3eed",
    "beneficiaryName()": "450f1272",
    "bridgeNFT(uint256,bytes32)": "d919836e",
    "initialize(address,address,string,string)": "2016a0d2",
    "logicContract()": "cc0e97c9",
    "offset(string,string)": "c7d0040e",
    "onERC721Received(address,address,uint256,bytes)": "150b7a02",
    "owner()": "8da5cb5b",
    "renounceOwnership()": "715018a6",
    "retireContract()": "6b7285d3",
    "setBeneficiary(address,string)": "ae57157a",
    "setRetireContract(address)": "259f390e",
    "setSolanaAccountAddress(string)": "eaacedc6",
    "setTCO2(address)": "62227c31",
    "tco2()": "50a22dbb",
    "transferOwnership(address)": "f2fde38b"
  },
  "id": 52
}