{
  "abi": [
    {
      "inputs": [],
      "name": "InsufficientFunds",
      "type": "error"
    },
    {
      "inputs": [],
      "name": "InvalidRetireContract",
      "type": "error"
    },
    {
      "anonymous": false,
      "inputs": [
        {
          "indexed": false,
          "internalType": "uint8",
          "name": "version",
          "type": "uint8"
        }
      ],
      "name": "Initialized",
      "type": "event"
    },
    {
      "anonymous": false,
      "inputs": [
        {
          "indexed": true,
          "internalType": "address",
          "name": "tco2",
          "type": "address"
        },
        {
          "indexed": true,
          "internalType": "address",
          "name": "beneficiary",
          "type": "address"
        },
        {
          "indexed": false,
          "internalType": "string",
          "name": "beneficiaryName",
          "type": "string"
        },
        {
          "indexed": false,
          "internalType": "uint256",
          "name": "amount",
          "type": "uint256"
        }
      ],
      "name": "Offset",
      "type": "event"
    },
    {
      "anonymous": false,
      "inputs": [
        {
          "indexed": true,
          "internalType": "address",
          "name": "previousOwner",
          "type": "address"
        },
        {
          "indexed": true,
          "internalType": "address",
          "name": "newOwner",
          "type": "address"
        }
      ],
      "name": "OwnershipTransferred",
      "type": "event"
    },
    {
      "inputs": [],
      "name": "BRIDGE",
      "outputs": [
        {
          "internalType": "address",
          "name": "",
          "type": "address"
        }
      ],
      "stateMutability": "view",
      "type": "function"
    },
    {
      "inputs": [],
      "name": "CERT",
      "outputs": [
        {
          "internalType": "address",
          "name": "",
          "type": "address"
        }
      ],
      "stateMutability": "view",
      "type": "function"
    },
    {
      "inputs": [],
      "name": "SolanaAccountAddress",
      "outputs": [
        {
          "internalType": "string",
          "name": "",
          "type": "string"
        }
      ],
      "stateMutability": "view",
      "type": "function"
    },
    {
      "inputs": [],
      "name": "USDC",
      "outputs": [
        {
          "internalType": "address",
          "name": "",
          "type": "address"
        }
      ],
      "stateMutability": "view",
      "type": "function"
    },
    {
      "inputs": [],
      "name": "beneficiary",
      "outputs": [
        {
          "internalType": "address",
          "name": "",
          "type": "address"
        }
      ],
      "stateMutability": "view",
      "type": "function"
    },
    {
      "inputs": [],
      "name": "beneficiaryName",
      "outputs": [
        {
          "internalType": "string",
          "name": "",
          "type": "string"
        }
      ],
      "stateMutability": "view",
      "type": "function"
    },
    {
      "inputs": [
        {
          "internalType": "uint256",
          "name": "tokenId",
          "type": "uint256"
        },
        {
          "internalType": "bytes32",
          "name": "recipient",
          "type": "bytes32"
        }
      ],
      "name": "bridgeNFT",
      "outputs": [
        {
          "internalType": "uint256",
          "name": "sequence",
          "type": "uint256"
        }
      ],
      "stateMutability": "nonpayable",
      "type": "function"
    },
    {
      "inputs": [
        {
          "internalType": "address",
          "name": "newTco2",
          "type": "address"
        },
        {
          "internalType": "address",
          "name": "newBeneficiary",
          "type": "address"
        },
        {
          "internalType": "string",
          "name": "newBeneficiaryName",
          "type": "string"
        },
        {
          "internalType": "string",
          "name": "newSolanaAccountAddress",
          "type": "string"
        },
        {
          "internalType": "address",
          "name": "newRetireContract",
          "type": "address"
        },
        {
          "internalType": "address",
          "name": "owner",
          "type": "address"
        }
      ],
      "name": "initialize",
      "outputs": [],
      "stateMutability": "nonpayable",
      "type": "function"
    },
    {
      "inputs": [
        {
          "internalType": "string",
          "name": "entity",
          "type": "string"
        },
        {
          "internalType": "string",
          "name": "message",
          "type": "string"
        }
      ],
      "name": "offset",
      "outputs": [],
      "stateMutability": "nonpayable",
      "type": "function"
    },
    {
      "inputs": [
        {
          "internalType": "address",
          "name": "operator",
          "type": "address"
        },
        {
          "internalType": "address",
          "name": "from",
          "type": "address"
        },
        {
          "internalType": "uint256",
          "name": "tokenId",
          "type": "uint256"
        },
        {
          "internalType": "bytes",
          "name": "data",
          "type": "bytes"
        }
      ],
      "name": "onERC721Received",
      "outputs": [
        {
          "internalType": "bytes4",
          "name": "",
          "type": "bytes4"
        }
      ],
      "stateMutability": "nonpayable",
      "type": "function"
    },
    {
      "inputs": [],
      "name": "owner",
      "outputs": [
        {
          "internalType": "address",
          "name": "",
          "type": "address"
        }
      ],
      "stateMutability": "view",
      "type": "function"
    },
    {
      "inputs": [],
      "name": "renounceOwnership",
      "outputs": [],
      "stateMutability": "nonpayable",
      "type": "function"
    },
    {
      "inputs": [],
      "name": "retireContract",
      "outputs": [
        {
          "internalType": "address",
          "name": "",
          "type": "address"
        }
      ],
      "stateMutability": "view",
      "type": "function"
    },
    {
      "inputs": [
        {
          "internalType": "address",
          "name": "newBeneficiary",
          "type": "address"
        },
        {
          "internalType": "string",
          "name": "newBeneficiaryName",
          "type": "string"
        }
      ],
      "name": "setBeneficiary",
      "outputs": [],
      "stateMutability": "nonpayable",
      "type": "function"
    },
    {
      "inputs": [
        {
          "internalType": "address",
          "name": "newRetireContract",
          "type": "address"
        }
      ],
      "name": "setRetireContract",
      "outputs": [],
      "stateMutability": "nonpayable",
      "type": "function"
    },
    {
      "inputs": [
        {
          "internalType": "string",
          "name": "newSolanaAccountAddress",
          "type": "string"
        }
      ],
      "name": "setSolanaAccountAddress",
      "outputs": [],
      "stateMutability": "nonpayable",
      "type": "function"
    },
    {
      "inputs": [
        {
          "internalType": "address",
          "name": "newTco2",
          "type": "address"
        }
      ],
      "name": "setTCO2",
      "outputs": [],
      "stateMutability": "nonpayable",
      "type": "function"
    },
    {
      "inputs": [],
      "name": "tco2",
      "outputs": [
        {
          "internalType": "address",
          "name": "",
          "type": "address"
        }
      ],
      "stateMutability": "view",
      "type": "function"
    },
    {
      "inputs": [
        {
          "internalType": "address",
          "name": "newOwner",
          "type": "address"
        }
      ],
      "name": "transferOwnership",
      "outputs": [],
      "stateMutability": "nonpayable",
      "type": "function"
    }
  ],
  "bytecode": {
    "object": "0x608060405234801561001057600080fd5b506110c8806100206000396000f3fe608060405234801561001057600080fd5b50600436106101215760003560e01c806389a30271116100ad578063d919836e11610071578063d919836e14610279578063eaacedc61461029a578063ee9a31a2146102ad578063f2fde38b146102c8578063f5cca9d4146102db57600080fd5b806389a302711461020c5780638da5cb5b14610227578063ae57157a14610238578063b0e7af761461024b578063c7d0040e1461026657600080fd5b8063450f1272116100f4578063450f1272146101b657806350a22dbb146101cb57806362227c31146101de5780636b7285d3146101f1578063715018a61461020457600080fd5b80630c5b2ab314610126578063150b7a021461013b578063259f390e1461017857806338af3eed1461018b575b600080fd5b610139610134366004610b9b565b6102e3565b005b61015a610149366004610c4d565b630a85bd0160e11b95945050505050565b6040516001600160e01b031990911681526020015b60405180910390f35b610139610186366004610cbc565b61046f565b60675461019e906001600160a01b031681565b6040516001600160a01b03909116815260200161016f565b6101be6104c0565b60405161016f9190610cde565b60665461019e906001600160a01b031681565b6101396101ec366004610cbc565b61054e565b606a5461019e906001600160a01b031681565b610139610578565b61019e732791bca1f2de4661ed88a30c99a7a9449aa8417481565b6033546001600160a01b031661019e565b610139610246366004610d33565b61058c565b61019e735e377f16e4ec6001652befd737341a28889af00281565b610139610274366004610d86565b6105c1565b61028c610287366004610df2565b6107a6565b60405190815260200161016f565b6101396102a8366004610e14565b6108f3565b61019e7390bbd86a6fe93d3bc3ed6335935447e75fab7fcf81565b6101396102d6366004610cbc565b61090c565b6101be610985565b600054610100900460ff16158080156103035750600054600160ff909116105b8061031d5750303b15801561031d575060005460ff166001145b6103855760405162461bcd60e51b815260206004820152602e60248201527f496e697469616c697a61626c653a20636f6e747261637420697320616c72656160448201526d191e481a5b9a5d1a585b1a5e995960921b60648201526084015b60405180910390fd5b6000805460ff1916600117905580156103a8576000805461ff0019166101001790555b606680546001600160a01b03808c166001600160a01b03199283161790925560678054928b16929091169190911790556103e460688888610a9d565b506103f160698686610a9d565b50606a80546001600160a01b0319166001600160a01b038516179055610415610992565b61041e8261090c565b8015610464576000805461ff0019169055604051600181527f7f26b83ff96e1f2b6a682f133852f6798a09c465da95921460cefb38474024989060200160405180910390a15b505050505050505050565b6104776109c1565b6001600160a01b03811661049e5760405163dfa4670360e01b815260040160405180910390fd5b606a80546001600160a01b0319166001600160a01b0392909216919091179055565b606880546104cd90610e56565b80601f01602080910402602001604051908101604052809291908181526020018280546104f990610e56565b80156105465780601f1061051b57610100808354040283529160200191610546565b820191906000526020600020905b81548152906001019060200180831161052957829003601f168201915b505050505081565b6105566109c1565b606680546001600160a01b0319166001600160a01b0392909216919091179055565b6105806109c1565b61058a6000610a1b565b565b6105946109c1565b606780546001600160a01b0319166001600160a01b0385161790556105bb60688383610a9d565b50505050565b6040516370a0823160e01b8152306004820152732791bca1f2de4661ed88a30c99a7a9449aa841749060009082906370a0823190602401602060405180830381865afa158015610615573d6000803e3d6000fd5b505050506040513d601f19601f820116820180604052508101906106399190610e90565b90508060000361065c5760405163356680b760e01b815260040160405180910390fd5b606a5460405163a9059cbb60e01b81526001600160a01b039182166004820152602481018390529083169063a9059cbb906044016020604051808303816000875af11580156106af573d6000803e3d6000fd5b505050506040513d601f19601f820116820180604052508101906106d39190610ea9565b50606a54606654606754604051631eb4f8f160e31b81526001600160a01b039384169363f5a7c7889361071c939082169287928d928d929116906068908d908d90600401610f93565b600060405180830381600087803b15801561073657600080fd5b505af115801561074a573d6000803e3d6000fd5b50506067546066546040516001600160a01b039283169450911691507f62c1393105c500a6e24dec1ad208220047772f49b7132b3f0f017f3281bf49a090610796906068908690610ffb565b60405180910390a3505050505050565b6000806107b260655490565b90506107c2606580546001019055565b60405163095ea7b360e01b81527390bbd86a6fe93d3bc3ed6335935447e75fab7fcf600482015260248101859052735e377f16e4ec6001652befd737341a28889af0029063095ea7b390604401600060405180830381600087803b15801561082957600080fd5b505af115801561083d573d6000803e3d6000fd5b505060405163c96616e160e01b8152735e377f16e4ec6001652befd737341a28889af002600482015260248101879052600160448201526064810186905263ffffffff841660848201527390bbd86a6fe93d3bc3ed6335935447e75fab7fcf925063c96616e1915060a4016020604051808303816000875af11580156108c7573d6000803e3d6000fd5b505050506040513d601f19601f820116820180604052508101906108eb919061101d565b505092915050565b6108fb6109c1565b61090760698383610a9d565b505050565b6109146109c1565b6001600160a01b0381166109795760405162461bcd60e51b815260206004820152602660248201527f4f776e61626c653a206e6577206f776e657220697320746865207a65726f206160448201526564647265737360d01b606482015260840161037c565b61098281610a1b565b50565b606980546104cd90610e56565b600054610100900460ff166109b95760405162461bcd60e51b815260040161037c90611047565b61058a610a6d565b6033546001600160a01b0316331461058a5760405162461bcd60e51b815260206004820181905260248201527f4f776e61626c653a2063616c6c6572206973206e6f7420746865206f776e6572604482015260640161037c565b603380546001600160a01b038381166001600160a01b0319831681179093556040519116919082907f8be0079c531659141344cd1fd0a4f28419497f9722a3daafe3b4186f6b6457e090600090a35050565b600054610100900460ff16610a945760405162461bcd60e51b815260040161037c90611047565b61058a33610a1b565b828054610aa990610e56565b90600052602060002090601f016020900481019282610acb5760008555610b11565b82601f10610ae45782800160ff19823516178555610b11565b82800160010185558215610b11579182015b82811115610b11578235825591602001919060010190610af6565b50610b1d929150610b21565b5090565b5b80821115610b1d5760008155600101610b22565b80356001600160a01b0381168114610b4d57600080fd5b919050565b60008083601f840112610b6457600080fd5b50813567ffffffffffffffff811115610b7c57600080fd5b602083019150836020828501011115610b9457600080fd5b9250929050565b60008060008060008060008060c0898b031215610bb757600080fd5b610bc089610b36565b9750610bce60208a01610b36565b9650604089013567ffffffffffffffff80821115610beb57600080fd5b610bf78c838d01610b52565b909850965060608b0135915080821115610c1057600080fd5b50610c1d8b828c01610b52565b9095509350610c30905060808a01610b36565b9150610c3e60a08a01610b36565b90509295985092959890939650565b600080600080600060808688031215610c6557600080fd5b610c6e86610b36565b9450610c7c60208701610b36565b935060408601359250606086013567ffffffffffffffff811115610c9f57600080fd5b610cab88828901610b52565b969995985093965092949392505050565b600060208284031215610cce57600080fd5b610cd782610b36565b9392505050565b600060208083528351808285015260005b81811015610d0b57858101830151858201604001528201610cef565b81811115610d1d576000604083870101525b50601f01601f1916929092016040019392505050565b600080600060408486031215610d4857600080fd5b610d5184610b36565b9250602084013567ffffffffffffffff811115610d6d57600080fd5b610d7986828701610b52565b9497909650939450505050565b60008060008060408587031215610d9c57600080fd5b843567ffffffffffffffff80821115610db457600080fd5b610dc088838901610b52565b90965094506020870135915080821115610dd957600080fd5b50610de687828801610b52565b95989497509550505050565b60008060408385031215610e0557600080fd5b50508035926020909101359150565b60008060208385031215610e2757600080fd5b823567ffffffffffffffff811115610e3e57600080fd5b610e4a85828601610b52565b90969095509350505050565b600181811c90821680610e6a57607f821691505b602082108103610e8a57634e487b7160e01b600052602260045260246000fd5b50919050565b600060208284031215610ea257600080fd5b5051919050565b600060208284031215610ebb57600080fd5b81518015158114610cd757600080fd5b81835281816020850137506000828201602090810191909152601f909101601f19169091010190565b8054600090600181811c9080831680610f0e57607f831692505b60208084108203610f2f57634e487b7160e01b600052602260045260246000fd5b83885260208801828015610f4a5760018114610f5b57610f86565b60ff19871682528282019750610f86565b60008981526020902060005b87811015610f8057815484820152908601908401610f67565b83019850505b5050505050505092915050565b600060018060a01b03808b16835289602084015260c06040840152610fbc60c08401898b610ecb565b81881660608501528381036080850152610fd68188610ef4565b91505082810360a0840152610fec818587610ecb565b9b9a5050505050505050505050565b60408152600061100e6040830185610ef4565b90508260208301529392505050565b60006020828403121561102f57600080fd5b815167ffffffffffffffff81168114610cd757600080fd5b6020808252602b908201527f496e697469616c697a61626c653a20636f6e7472616374206973206e6f74206960408201526a6e697469616c697a696e6760a81b60608201526080019056fea2646970667358221220e98e4ad2ddd31f36a92c388d9859244e73ef863c4a7a9c0ca1c4e30e3c1ff36264736f6c634300080e0033",
    "linkReferences": {}
  },
  "methodIdentifiers": {
    "BRIDGE()": "ee9a31a2",
    "CERT()": "b0e7af76",
    "SolanaAccountAddress()": "f5cca9d4",
    "USDC()": "89a30271",
    "beneficiary()": "38af3eed",
    "beneficiaryName()": "450f1272",
    "bridgeNFT(uint256,bytes32)": "d919836e",
    "initialize(address,address,string,string,address,address)": "0c5b2ab3",
    "offset(string,string)": "c7d0040e",
    "onERC721Received(address,address,uint256,bytes)": "150b7a02",
    "owner()": "8da5cb5b",
    "renounceOwnership()": "715018a6",
    "retireContract()": "6b7285d3",
    "setBeneficiary(address,string)": "ae57157a",
    "setRetireContract(address)": "259f390e",
    "setSolanaAccountAddress(string)": "eaacedc6",
    "setTCO2(address)": "62227c31",
    "tco2()": "50a22dbb",
    "transferOwnership(address)": "f2fde38b"
  },
  "id": 52
}