{
  "abi": [
    {
      "inputs": [
        {
          "internalType": "address",
          "name": "newTco2",
          "type": "address"
        },
        {
          "internalType": "address",
          "name": "newBeneficiary",
          "type": "address"
        },
        {
          "internalType": "string",
          "name": "newBeneficiaryName",
          "type": "string"
        }
      ],
      "stateMutability": "nonpayable",
      "type": "constructor"
    },
    {
      "inputs": [],
      "name": "InsufficientFunds",
      "type": "error"
    },
    {
      "inputs": [],
      "name": "InvalidRetireContract",
      "type": "error"
    },
    {
      "anonymous": false,
      "inputs": [
        {
          "indexed": true,
          "internalType": "address",
          "name": "tco2",
          "type": "address"
        },
        {
          "indexed": true,
          "internalType": "address",
          "name": "beneficiary",
          "type": "address"
        },
        {
          "indexed": false,
          "internalType": "string",
          "name": "beneficiaryName",
          "type": "string"
        },
        {
          "indexed": false,
          "internalType": "uint256",
          "name": "amount",
          "type": "uint256"
        }
      ],
      "name": "Offset",
      "type": "event"
    },
    {
      "anonymous": false,
      "inputs": [
        {
          "indexed": true,
          "internalType": "address",
          "name": "previousOwner",
          "type": "address"
        },
        {
          "indexed": true,
          "internalType": "address",
          "name": "newOwner",
          "type": "address"
        }
      ],
      "name": "OwnershipTransferred",
      "type": "event"
    },
    {
      "inputs": [],
      "name": "BRIDGE",
      "outputs": [
        {
          "internalType": "address",
          "name": "",
          "type": "address"
        }
      ],
      "stateMutability": "view",
      "type": "function"
    },
    {
      "inputs": [],
      "name": "CERT",
      "outputs": [
        {
          "internalType": "address",
          "name": "",
          "type": "address"
        }
      ],
      "stateMutability": "view",
      "type": "function"
    },
    {
      "inputs": [],
      "name": "SolanaAccountAddress",
      "outputs": [
        {
          "internalType": "string",
          "name": "",
          "type": "string"
        }
      ],
      "stateMutability": "view",
      "type": "function"
    },
    {
      "inputs": [],
      "name": "USDC",
      "outputs": [
        {
          "internalType": "address",
          "name": "",
          "type": "address"
        }
      ],
      "stateMutability": "view",
      "type": "function"
    },
    {
      "inputs": [],
      "name": "beneficiary",
      "outputs": [
        {
          "internalType": "address",
          "name": "",
          "type": "address"
        }
      ],
      "stateMutability": "view",
      "type": "function"
    },
    {
      "inputs": [],
      "name": "beneficiaryName",
      "outputs": [
        {
          "internalType": "string",
          "name": "",
          "type": "string"
        }
      ],
      "stateMutability": "view",
      "type": "function"
    },
    {
      "inputs": [
        {
          "internalType": "uint256",
          "name": "tokenId",
          "type": "uint256"
        },
        {
          "internalType": "bytes32",
          "name": "recipient",
          "type": "bytes32"
        }
      ],
      "name": "bridgeNFT",
      "outputs": [
        {
          "internalType": "uint256",
          "name": "sequence",
          "type": "uint256"
        }
      ],
      "stateMutability": "nonpayable",
      "type": "function"
    },
    {
      "inputs": [
        {
          "internalType": "string",
          "name": "entity",
          "type": "string"
        },
        {
          "internalType": "string",
          "name": "message",
          "type": "string"
        }
      ],
      "name": "offset",
      "outputs": [],
      "stateMutability": "nonpayable",
      "type": "function"
    },
    {
      "inputs": [],
      "name": "owner",
      "outputs": [
        {
          "internalType": "address",
          "name": "",
          "type": "address"
        }
      ],
      "stateMutability": "view",
      "type": "function"
    },
    {
      "inputs": [],
      "name": "renounceOwnership",
      "outputs": [],
      "stateMutability": "nonpayable",
      "type": "function"
    },
    {
      "inputs": [],
      "name": "retireContract",
      "outputs": [
        {
          "internalType": "address",
          "name": "",
          "type": "address"
        }
      ],
      "stateMutability": "view",
      "type": "function"
    },
    {
      "inputs": [
        {
          "internalType": "address",
          "name": "newBeneficiary",
          "type": "address"
        },
        {
          "internalType": "string",
          "name": "newBeneficiaryName",
          "type": "string"
        }
      ],
      "name": "setBeneficiary",
      "outputs": [],
      "stateMutability": "nonpayable",
      "type": "function"
    },
    {
      "inputs": [
        {
          "internalType": "address",
          "name": "newRetireContract",
          "type": "address"
        }
      ],
      "name": "setRetireContract",
      "outputs": [],
      "stateMutability": "nonpayable",
      "type": "function"
    },
    {
      "inputs": [
        {
          "internalType": "string",
          "name": "newSolanaAccountAddress",
          "type": "string"
        }
      ],
      "name": "setSolanaAccountAddress",
      "outputs": [],
      "stateMutability": "nonpayable",
      "type": "function"
    },
    {
      "inputs": [
        {
          "internalType": "address",
          "name": "newTco2",
          "type": "address"
        }
      ],
      "name": "setTCO2",
      "outputs": [],
      "stateMutability": "nonpayable",
      "type": "function"
    },
    {
      "inputs": [
        {
          "internalType": "string",
          "name": "str",
          "type": "string"
        }
      ],
      "name": "stringToBytes32",
      "outputs": [
        {
          "internalType": "bytes32",
          "name": "result",
          "type": "bytes32"
        }
      ],
      "stateMutability": "pure",
      "type": "function"
    },
    {
      "inputs": [],
      "name": "tco2",
      "outputs": [
        {
          "internalType": "address",
          "name": "",
          "type": "address"
        }
      ],
      "stateMutability": "view",
      "type": "function"
    },
    {
      "inputs": [
        {
          "internalType": "address",
          "name": "newOwner",
          "type": "address"
        }
      ],
      "name": "transferOwnership",
      "outputs": [],
      "stateMutability": "nonpayable",
      "type": "function"
    }
  ],
  "bytecode": {
    "object": "0x60806040523480156200001157600080fd5b5060405162001100380380620011008339810160408190526200003491620001b7565b6200003f336200008e565b600380546001600160a01b038086166001600160a01b0319928316179092556004805492851692909116919091179055805162000084906005906020840190620000de565b50505050620002f7565b600080546001600160a01b038381166001600160a01b0319831681178455604051919092169283917f8be0079c531659141344cd1fd0a4f28419497f9722a3daafe3b4186f6b6457e09190a35050565b828054620000ec90620002bb565b90600052602060002090601f0160209004810192826200011057600085556200015b565b82601f106200012b57805160ff19168380011785556200015b565b828001600101855582156200015b579182015b828111156200015b5782518255916020019190600101906200013e565b50620001699291506200016d565b5090565b5b808211156200016957600081556001016200016e565b80516001600160a01b03811681146200019c57600080fd5b919050565b634e487b7160e01b600052604160045260246000fd5b600080600060608486031215620001cd57600080fd5b620001d88462000184565b92506020620001e981860162000184565b60408601519093506001600160401b03808211156200020757600080fd5b818701915087601f8301126200021c57600080fd5b815181811115620002315762000231620001a1565b604051601f8201601f19908116603f011681019083821181831017156200025c576200025c620001a1565b816040528281528a868487010111156200027557600080fd5b600093505b828410156200029957848401860151818501870152928501926200027a565b82841115620002ab5760008684830101525b8096505050505050509250925092565b600181811c90821680620002d057607f821691505b602082108103620002f157634e487b7160e01b600052602260045260246000fd5b50919050565b610df980620003076000396000f3fe608060405234801561001057600080fd5b50600436106101165760003560e01c8063ae57157a116100a2578063d919836e11610071578063d919836e14610246578063eaacedc614610259578063ee9a31a21461026c578063f2fde38b14610287578063f5cca9d41461029a57600080fd5b8063ae57157a146101e2578063b0e7af76146101f5578063c7d0040e14610210578063cfb519281461022357600080fd5b806362227c31116100e957806362227c31146101885780636b7285d31461019b578063715018a6146101ae57806389a30271146101b65780638da5cb5b146101d157600080fd5b8063259f390e1461011b57806338af3eed14610130578063450f12721461016057806350a22dbb14610175575b600080fd5b61012e610129366004610928565b6102a2565b005b600454610143906001600160a01b031681565b6040516001600160a01b0390911681526020015b60405180910390f35b6101686102f3565b604051610157919061094a565b600354610143906001600160a01b031681565b61012e610196366004610928565b610381565b600254610143906001600160a01b031681565b61012e6103ab565b610143732791bca1f2de4661ed88a30c99a7a9449aa8417481565b6000546001600160a01b0316610143565b61012e6101f03660046109e8565b6103bf565b610143735e377f16e4ec6001652befd737341a28889af00281565b61012e61021e366004610a3b565b6103f4565b610238610231366004610abd565b6020015190565b604051908152602001610157565b610238610254366004610b6e565b6105d8565b61012e610267366004610b90565b610725565b6101437390bbd86a6fe93d3bc3ed6335935447e75fab7fcf81565b61012e610295366004610928565b61073e565b6101686107bc565b6102aa6107c9565b6001600160a01b0381166102d15760405163dfa4670360e01b815260040160405180910390fd5b600280546001600160a01b0319166001600160a01b0392909216919091179055565b6005805461030090610bd2565b80601f016020809104026020016040519081016040528092919081815260200182805461032c90610bd2565b80156103795780601f1061034e57610100808354040283529160200191610379565b820191906000526020600020905b81548152906001019060200180831161035c57829003601f168201915b505050505081565b6103896107c9565b600380546001600160a01b0319166001600160a01b0392909216919091179055565b6103b36107c9565b6103bd6000610823565b565b6103c76107c9565b600480546001600160a01b0319166001600160a01b0385161790556103ee60058383610873565b50505050565b6040516370a0823160e01b8152306004820152732791bca1f2de4661ed88a30c99a7a9449aa841749060009082906370a0823190602401602060405180830381865afa158015610448573d6000803e3d6000fd5b505050506040513d601f19601f8201168201806040525081019061046c9190610c0c565b90508060000361048f5760405163356680b760e01b815260040160405180910390fd5b60025460405163a9059cbb60e01b81526001600160a01b039182166004820152602481018390529083169063a9059cbb906044016020604051808303816000875af11580156104e2573d6000803e3d6000fd5b505050506040513d601f19601f820116820180604052508101906105069190610c25565b5060025460035460048054604051631eb4f8f160e31b81526001600160a01b039485169463f5a7c7889461054e949082169388938e938e939216916005918e918e9101610d0f565b600060405180830381600087803b15801561056857600080fd5b505af115801561057c573d6000803e3d6000fd5b50506004546003546040516001600160a01b039283169450911691507f62c1393105c500a6e24dec1ad208220047772f49b7132b3f0f017f3281bf49a0906105c8906005908690610d77565b60405180910390a3505050505050565b6000806105e460015490565b90506105f4600180546001019055565b60405163095ea7b360e01b81527390bbd86a6fe93d3bc3ed6335935447e75fab7fcf600482015260248101859052735e377f16e4ec6001652befd737341a28889af0029063095ea7b390604401600060405180830381600087803b15801561065b57600080fd5b505af115801561066f573d6000803e3d6000fd5b505060405163c96616e160e01b8152735e377f16e4ec6001652befd737341a28889af002600482015260248101879052600160448201526064810186905263ffffffff841660848201527390bbd86a6fe93d3bc3ed6335935447e75fab7fcf925063c96616e1915060a4016020604051808303816000875af11580156106f9573d6000803e3d6000fd5b505050506040513d601f19601f8201168201806040525081019061071d9190610d99565b505092915050565b61072d6107c9565b61073960068383610873565b505050565b6107466107c9565b6001600160a01b0381166107b05760405162461bcd60e51b815260206004820152602660248201527f4f776e61626c653a206e6577206f776e657220697320746865207a65726f206160448201526564647265737360d01b60648201526084015b60405180910390fd5b6107b981610823565b50565b6006805461030090610bd2565b6000546001600160a01b031633146103bd5760405162461bcd60e51b815260206004820181905260248201527f4f776e61626c653a2063616c6c6572206973206e6f7420746865206f776e657260448201526064016107a7565b600080546001600160a01b038381166001600160a01b0319831681178455604051919092169283917f8be0079c531659141344cd1fd0a4f28419497f9722a3daafe3b4186f6b6457e09190a35050565b82805461087f90610bd2565b90600052602060002090601f0160209004810192826108a157600085556108e7565b82601f106108ba5782800160ff198235161785556108e7565b828001600101855582156108e7579182015b828111156108e75782358255916020019190600101906108cc565b506108f39291506108f7565b5090565b5b808211156108f357600081556001016108f8565b80356001600160a01b038116811461092357600080fd5b919050565b60006020828403121561093a57600080fd5b6109438261090c565b9392505050565b600060208083528351808285015260005b818110156109775785810183015185820160400152820161095b565b81811115610989576000604083870101525b50601f01601f1916929092016040019392505050565b60008083601f8401126109b157600080fd5b50813567ffffffffffffffff8111156109c957600080fd5b6020830191508360208285010111156109e157600080fd5b9250929050565b6000806000604084860312156109fd57600080fd5b610a068461090c565b9250602084013567ffffffffffffffff811115610a2257600080fd5b610a2e8682870161099f565b9497909650939450505050565b60008060008060408587031215610a5157600080fd5b843567ffffffffffffffff80821115610a6957600080fd5b610a758883890161099f565b90965094506020870135915080821115610a8e57600080fd5b50610a9b8782880161099f565b95989497509550505050565b634e487b7160e01b600052604160045260246000fd5b600060208284031215610acf57600080fd5b813567ffffffffffffffff80821115610ae757600080fd5b818401915084601f830112610afb57600080fd5b813581811115610b0d57610b0d610aa7565b604051601f8201601f19908116603f01168101908382118183101715610b3557610b35610aa7565b81604052828152876020848701011115610b4e57600080fd5b826020860160208301376000928101602001929092525095945050505050565b60008060408385031215610b8157600080fd5b50508035926020909101359150565b60008060208385031215610ba357600080fd5b823567ffffffffffffffff811115610bba57600080fd5b610bc68582860161099f565b90969095509350505050565b600181811c90821680610be657607f821691505b602082108103610c0657634e487b7160e01b600052602260045260246000fd5b50919050565b600060208284031215610c1e57600080fd5b5051919050565b600060208284031215610c3757600080fd5b8151801515811461094357600080fd5b81835281816020850137506000828201602090810191909152601f909101601f19169091010190565b8054600090600181811c9080831680610c8a57607f831692505b60208084108203610cab57634e487b7160e01b600052602260045260246000fd5b83885260208801828015610cc65760018114610cd757610d02565b60ff19871682528282019750610d02565b60008981526020902060005b87811015610cfc57815484820152908601908401610ce3565b83019850505b5050505050505092915050565b600060018060a01b03808b16835289602084015260c06040840152610d3860c08401898b610c47565b81881660608501528381036080850152610d528188610c70565b91505082810360a0840152610d68818587610c47565b9b9a5050505050505050505050565b604081526000610d8a6040830185610c70565b90508260208301529392505050565b600060208284031215610dab57600080fd5b815167ffffffffffffffff8116811461094357600080fdfea2646970667358221220ba7f7c8c16e9d880215b28378f5e3d96486f5c13766a46caac2733efc91c31b564736f6c634300080e0033",
    "linkReferences": {}
  },
  "methodIdentifiers": {
    "BRIDGE()": "ee9a31a2",
    "CERT()": "b0e7af76",
    "SolanaAccountAddress()": "f5cca9d4",
    "USDC()": "89a30271",
    "beneficiary()": "38af3eed",
    "beneficiaryName()": "450f1272",
    "bridgeNFT(uint256,bytes32)": "d919836e",
    "offset(string,string)": "c7d0040e",
    "owner()": "8da5cb5b",
    "renounceOwnership()": "715018a6",
    "retireContract()": "6b7285d3",
    "setBeneficiary(address,string)": "ae57157a",
    "setRetireContract(address)": "259f390e",
    "setSolanaAccountAddress(string)": "eaacedc6",
    "setTCO2(address)": "62227c31",
    "stringToBytes32(string)": "cfb51928",
    "tco2()": "50a22dbb",
    "transferOwnership(address)": "f2fde38b"
  },
  "id": 47
}